:020000040000fa
:080000000002040000000000f2
:020000040000fa
:040008000e030000e3
:020000040000fa
:04000c0020030000cd
:020000040000fa
:0400100030030000b9
:020000040000fa
:0400140016030000cf
:020000040000fa
:0400180028030000b9
:020000040000fa
:04001c003e0400009e
:020000040000fa
:0400200038030000a1
:020000040000fa
:040024003e04000096
:020000040000fa
:040028003e04000092
:020000040000fa
:04002c003e0400008e
:020000040000fa
:040030003e0400008a
:020000040000fa
:0400340008040000bc
:020000040000fa
:040038003e04000082
:020000040000fa
:04003c003e0400007e
:020000040000fa
:040040003e0400007a
:020000040000fa
:040044003e04000076
:020000040000fa
:040048003e04000072
:020000040000fa
:04004c003e0400006e
:020000040000fa
:040050003e0400006a
:020000040000fa
:040054003e04000066
:020000040000fa
:040058003e04000062
:020000040000fa
:04005c003e0400005e
:020000040000fa
:040060003e0400005a
:020000040000fa
:040064003e04000056
:020000040000fa
:040068003e04000052
:020000040000fa
:04006c003e0400004e
:020000040000fa
:040070003e0400004a
:020000040000fa
:040074003e04000046
:020000040000fa
:040078003e04000042
:020000040000fa
:04007c003e0400003e
:020000040000fa
:040080003e0400003a
:020000040000fa
:040084003e04000036
:020000040000fa
:040088003e04000032
:020000040000fa
:04008c003e0400002e
:020000040000fa
:040090003e0400002a
:020000040000fa
:040094003e04000026
:020000040000fa
:040098003e04000022
:020000040000fa
:04009c003e0400001e
:020000040000fa
:0400a000ac030000ad
:020000040000fa
:0400a4004003000015
:020000040000fa
:0400a8003e04000012
:020000040000fa
:0400ac003e0400000e
:020000040000fa
:0400b0003e0400000a
:020000040000fa
:0400b4003e04000006
:020000040000fa
:0400b8003e04000002
:020000040000fa
:0400bc003e040000fe
:020000040000fa
:0400c0003e040000fa
:020000040000fa
:0400c4003e040000f6
:020000040000fa
:0400c8003e040000f2
:020000040000fa
:0400cc003e040000ee
:020000040000fa
:0400d0003e040000ea
:020000040000fa
:0400d4003e040000e6
:020000040000fa
:0400d8003e040000e2
:020000040000fa
:0400dc003e040000de
:020000040000fa
:0400e0003e040000da
:020000040000fa
:0400e4003e040000d6
:020000040000fa
:0400e8003e040000d2
:020000040000fa
:0400ec003e040000ce
:020000040000fa
:0400f0003e040000ca
:020000040000fa
:0400f4003e040000c6
:020000040000fa
:0400f8003e040000c2
:020000040000fa
:0400fc003e040000be
:020000040000fa
:040100003e040000b9
:020000040000fa
:040104003e040000b5
:020000040000fa
:040108003e040000b1
:020000040000fa
:04010c003e040000ad
:020000040000fa
:040110003e040000a9
:020000040000fa
:040114003e040000a5
:020000040000fa
:040118003e040000a1
:020000040000fa
:04011c003e0400009d
:020000040000fa
:040120003e04000099
:020000040000fa
:040124003e04000095
:020000040000fa
:040128003e04000091
:020000040000fa
:04012c003e0400008d
:020000040000fa
:04013000f2030000d6
:020000040000fa
:040134003e04000085
:020000040000fa
:040138003e04000081
:020000040000fa
:04013c003e0400007d
:020000040000fa
:040140003e04000079
:020000040000fa
:040144003e04000075
:020000040000fa
:040148003e04000071
:020000040000fa
:04014c003e0400006d
:020000040000fa
:040150003e04000069
:020000040000fa
:040154003e04000065
:020000040000fa
:040158003e04000061
:020000040000fa
:04015c003e0400005d
:020000040000fa
:040160003e04000059
:020000040000fa
:040164003e04000055
:020000040000fa
:040168003e04000051
:020000040000fa
:04016c003e0400004d
:020000040000fa
:040170003e04000049
:020000040000fa
:040174003e04000045
:020000040000fa
:040178003e04000041
:020000040000fa
:04017c003e0400003d
:020000040000fa
:040180003e04000039
:020000040000fa
:040184003e04000035
:020000040000fa
:040188003e04000031
:020000040000fa
:04018c003e0400002d
:020000040000fa
:040190003e04000029
:020000040000fa
:040194003e04000025
:020000040000fa
:040198003e04000021
:020000040000fa
:04019c003e0400001d
:020000040000fa
:0401a0003e04000019
:020000040000fa
:0401a4003e04000015
:020000040000fa
:0401a8003e04000011
:020000040000fa
:0401ac003e0400000d
:020000040000fa
:0401b0003e04000009
:020000040000fa
:0401b4003e04000005
:020000040000fa
:0401b8003e04000001
:020000040000fa
:0401bc003e040000fd
:020000040000fa
:0401c0003e040000f9
:020000040000fa
:0401c4003e040000f5
:020000040000fa
:0401c8003e040000f1
:020000040000fa
:0401cc003e040000ed
:020000040000fa
:0401d0003e040000e9
:020000040000fa
:0401d4003e040000e5
:020000040000fa
:0401d8003e040000e1
:020000040000fa
:0401dc003e040000dd
:020000040000fa
:0401e0003e040000d9
:020000040000fa
:0401e4003e040000d5
:020000040000fa
:0401e8003e040000d1
:020000040000fa
:0401ec003e040000cd
:020000040000fa
:0401f0003e040000c9
:020000040000fa
:0401f4003e040000c5
:020000040000fa
:0401f8003e040000c1
:020000040000fa
:0401fc003e040000bd
:020000040000fa
:040200003e040000b8
:020000040000fa
:040204003e040000b4
:020000040000fa
:040208003e040000b0
:020000040000fa
:04020c003e040000ac
:020000040000fa
:040210003e040000a8
:020000040000fa
:040214003e040000a4
:020000040000fa
:040218003e040000a0
:020000040000fa
:04021c003e0400009c
:020000040000fa
:040220003e04000098
:020000040000fa
:040224003e04000094
:020000040000fa
:040228003e04000090
:020000040000fa
:04022c003e0400008c
:020000040000fa
:040230003e04000088
:020000040000fa
:040234003e04000084
:020000040000fa
:040238003e04000080
:020000040000fa
:04023c003e0400007c
:020000040000fa
:040240003e04000078
:020000040000fa
:040244003e04000074
:020000040000fa
:040248003e04000070
:020000040000fa
:04024c003e0400006c
:020000040000fa
:040250003e04000068
:020000040000fa
:040254003e04000064
:020000040000fa
:040258003e04000060
:020000040000fa
:04025c003e0400005c
:020000040000fa
:040260003e04000058
:020000040000fa
:040264003e04000054
:020000040000fa
:040268003e04000050
:020000040000fa
:04026c003e0400004c
:020000040000fa
:040270003e04000048
:020000040000fa
:040274003e04000044
:020000040000fa
:040278003e04000040
:020000040000fa
:04027c003e0400003c
:020000040000fa
:040280003e04000038
:020000040000fa
:040284003e04000034
:020000040000fa
:040288003e04000030
:020000040000fa
:04028c003e0400002c
:020000040000fa
:040290003e04000028
:020000040000fa
:040294003e04000024
:020000040000fa
:040298003e04000020
:020000040000fa
:04029c003e0400001c
:020000040000fa
:0402a0003e04000018
:020000040000fa
:0402a4003e04000014
:020000040000fa
:0402a8003e04000010
:020000040000fa
:0402ac003e0400000c
:020000040000fa
:0402b0003e04000008
:020000040000fa
:0402b4003e04000004
:020000040000fa
:0402b8003e04000000
:020000040000fa
:0402bc003e040000fc
:020000040000fa
:0402c0003e040000f8
:020000040000fa
:0402c4003e040000f4
:020000040000fa
:0402c8003e040000f0
:020000040000fa
:0402cc003e040000ec
:020000040000fa
:0402d0003e040000e8
:020000040000fa
:0402d4003e040000e4
:020000040000fa
:0402d8003e040000e0
:020000040000fa
:0402dc003e040000dc
:020000040000fa
:0402e0003e040000d8
:020000040000fa
:0402e4003e040000d4
:020000040000fa
:0402e8003e040000d0
:020000040000fa
:0402ec003e040000cc
:020000040000fa
:0402f0003e040000c8
:020000040000fa
:0402f4003e040000c4
:020000040000fa
:0402f8003e040000c0
:020000040000fa
:0402fc003e040000bc
:020000040000fa
:040300003e040000b7
:020000040000fa
:040304003e040000b3
:020000040000fa
:040308003e040000af
:020000040000fa
:04030c003e040000ab
:020000040000fa
:040310003e040000a7
:020000040000fa
:040314003e040000a3
:020000040000fa
:040318003e0400009f
:020000040000fa
:04031c003e0400009b
:020000040000fa
:040320003e04000097
:020000040000fa
:10040000cfa521000eff22000e0188000000000091
:10041000000020000000e000020032000001200087
:1004200020028800140007006a0107000000e000b5
:1004300003003a0080fa210001002000020037008a
:100440000000200001002000810f70000100320038
:100450000f000700000020000000e0000200320052
:100460000000020000000000503802000000000000
:100470000040da000000fe00803320000000e000b1
:1004800002003200002020009001880000000600d9
:10049000a1028800800478000000eb001f003700f4
:1004a000e284440054a0b4009905ba00e2844400f8
:1004b00054a0b4009906ba00e284440054a0b400e9
:1004c0000006eb00476fde00fd07b200ae018800ba
:1004d000636ce10003003a000ad801000000eb0061
:1004e0000e003700606ce10008003a00004deb00a0
:1004f0000a05e800020039003420ec000af0a000f0
:100500008b05e900f9ff3e00040037006168e10057
:10051000010032000086eb000b00070019c7ba008b
:100520000e04e0001905ba0003003a000a00e000da
:10053000dbff3a0000000600fe07b200ae028800b2
:100540008a047800f5ff37000cd0a300e20f4d00bd
:100550001c00390089027800354dba000a05e80010
:10056000020039003420ec000af0a0008b05e900fd
:100570000f003200254dba000a05e80002003900dc
:100580003420ec000af0a0008b05e90008003200de
:100590000c00e0000600320015cdba000a05e800a4
:1005a000020039003420ec000af0a0008b05e900bd
:1005b0008984e80054a0b4000b00e000e2ff3a0098
:1005c000000006009902ba00055d78008b05e9007d
:1005d000f7ff3200c82ade00055d78008b05e900d0
:1005e000f3ff32000c00e000f1ff320019ddba0029
:1005f000eeff37000236040000000000b22f0400b6
:1006000000000000400a0400000000000000040098
:10061000000000007c0a0400000000003600f80022
:10062000c028a9000000eb003b1b07003600f800c3
:100630003d1b0700c048a90010002000361b070022
:100640003600f800c068a90020002000321b070017
:100650003600f800c088a900300020002e1b0700db
:100660003600f800c608a900700020002a1b070009
:100670003600f800c408a900b0002000261b0700bf
:10068000809fbe000000fa0021bc800010bc8000ea
:10069000808f500010003a0031bc80000010200014
:1006a000008060000000e0000b003a000000000045
:1006b0009111800000102000008060000000e00028
:1006c000fbff320030bc80000090a00030bc8800ee
:1006d00023e8a9001d00370003e8a9001400370033
:1006e00020bc8000104078000080fb00a011880032
:1006f00020bc80000000e80020bc880021bc8000f5
:1007000000792100808f500002003a00807821009b
:1007100020bc880030bc80000080a10030bc880074
:1007200021bc800010bc8000808f50000600320089
:100730009111800000202000008060000000e00097
:10074000e7ff320001003700000000000080fa00df
:100750004f00be0000400600809fbe000000fa006f
:1007600018003700f0bb8000b11180008140780094
:1007700001487800f0bb80000000e800f0bb880072
:10078000f1bb8000407f2100808f500002003a00c2
:1007900000792100f0bb880030bc80000010a1006f
:1007a00030bc8800f1bb800000bc8000808f50000e
:1007b00004003a0030bc80000000a00030bc88007b
:1007c0000400370090118000610060000000e0002c
:1007d000e4ff3a0003c8a9000080fa004f00be0001
:1007e00000400600801f78000000fa009011800091
:1007f000620060000000e000010032003222a90027
:100800000848a9000080fa004f0078000040060068
:100810003600f800809fbe00829fbe00849fbe000d
:10082000869fbe000000fa00908180000000e0007a
:10083000020032009081800000000100907f2100c2
:10084000104078008040e800907f21000148780047
:10085000807f210011c0b300014878000068a90022
:100860000080fa004f03be004f02be004f01be00e1
:100870004f00be003600f900004006000040da00dc
:100880000000fe000a00fa0011002000b1bf9f0026
:10089000c0bf9f006a805700ff0707004fb897004e
:1008a0000080fa00000006000a00fa005100200053
:1008b000b1bf9f00c0bf9f006a805700f8070700c4
:1008c0005fb897000080fa0000000600889fbe0015
:1008d00080047800f0bf80000000e00004003a00cf
:1008e0000e0007000084eb000000e0000800350067
:1008f000f8bf80000900e000050032000900440054
:10090000060007000000e00001003d000084eb004d
:10091000080078004f04be00000006008000780048
:100920000100e00003003a0000002000f0bf880052
:10093000000005000080eb0002002000828f5000c4
:1009400002003e00f1bf88000000eb00000006003e
:100950000800fa0010079800210798003207980055
:1009600000000000111180000010200000806000d5
:100970000000e000fbff3200be009000010f780095
:100980000e00370000000000111180000010200050
:10099000008060000000e000fbff32002e009000ad
:1009a000104078000000fb00201188002e0090000d
:1009b0000000e800200798001e0fe9001e007800e4
:1009c0000000e000efff3a003e0090000080fa00d7
:1009d0000000060000000500889fbe008a9fbe0040
:1009e0008c1f7800a6000700ad00330003866c0062
:1009f0006450e1002e0032006420e1003300320038
:100a00006150e1002f0032006120e100310032002e
:100a100085855500eb07b000090020000804200080
:100a2000050037000804440089844c000a003100a6
:100a30000603430087834b000001530081815b0064
:100a4000f8ff33000203be000800a00008044400c1
:100a500089844c00f6ff3900c639dd00830173003c
:100a600001003200130020008904d1000884d30063
:100a70000998a300050032000800a7000300a000a9
:100a80008904d1000884d3008b05e8008904d100d3
:100a90000884d3000001eb000281d2003d00070072
:100aa00001f0a1000cf0a70001f0a00085003700c4
:100ab0006420e100870032000801be000200be0091
:100ac000f7ff37006120e100820032006000b800cb
:100ad000f3ff37000000200001f82700f0ff370087
:100ae000839f68000100e00002003d0060001000ec
:100af000e08018000300e00002003d0060011100ea
:100b0000e0811900aa0007004f00e00002003b004e
:100b100060001000e0801800000006000001be0028
:100b2000420007000470a70003f0a10003f8a3002f
:100b300013003a006509b1001000320009003500c9
:100b40006928e100020035000100280000000500ce
:100b500000004000818048008502e900fcff3a0067
:100b600000000600f88f4200050035008100d1002a
:100b70000080d3008502e800fcff3a000000060078
:100b80008000eb00000005004f89de008201780044
:100b90009700370081002000618055000b003d0068
:100ba0000b00200061fe2f000100e1001d00340059
:100bb00082817100610164008904d1000884d3003e
:100bc0000000e800faff3a007100200061006400b4
:100bd000030070000200600009003200610444005c
:100be000e0844c000988a500050032008b05e80070
:100bf0006808e10002003a008904d1000884d300ab
:100c0000f20f20000258e10005003d00c75ddd0045
:100c1000f907b2008980750008007800000006001e
:100c20000bf827008b00780000000500c70ade00e3
:100c3000f107b200f50fb20008003200e1cf420028
:100c4000020032000170a00024000500810f700036
:100c5000010032000408050044000500810f700007
:100c600002003a00140005008502e900000040007f
:100c700081c04800fcff3b000170a000240005007b
:100c80000004be00e9ff07000003be000405be002b
:100c90000200be00e5ff0700844f7500000006005b
:100ca0000200be006450e100050036006420e1004f
:100cb000020036000968a30001003a000800be00e7
:100cc0000160a0004f0678004f05be004f04be0033
:100cd00000000600f0ff2f00f1ff2700f9ff3700aa
:100ce000889fbe008a9fbe008c1f7800e4ff07002b
:100cf000ebff330003866c006450e10024003200f7
:100d00006420e100270032006150e100220032003f
:100d10006120e100210032008b854200eb07b10029
:100d20000134b800003ab8000804420089844a003f
:100d3000013ab8000030b8008880400009014a003c
:100d40000400330000004000818048000201490097
:100d50008b05e900c909dd00830170000100320044
:100d600013002000c814de004814dd004709de002f
:100d70001200b200c808de000884700085ff07007a
:100d800001f0a1000cf0a70001f0a000cdff37009a
:100d90006120e100cfff32000801be000200be006a
:100da000f7ff37006150e100fcff3a00c9ff370050
:100db0006022b800060220000000d0008180d2002e
:100dc0000482d2008582d2000000a00002025200fc
:100dd00083825a00030031000202420083824a00eb
:100de0000000a1000603e900f3ff3a00000006003e
:100df000881f7800030478000300e00007003d002e
:100e000060001000e080180060011900e081190006
:100e100002003b0001f02d00030037000400070032
:100e200008f0a70001f0a0004f04780000000600c1
:100e3000889fbe008a9fbe0000827000040271007d
:100e400004827100260032000004be000200be00d1
:100e50006011b8006b092000950220000182cf00cc
:100e60000a0039000541b1000082cf0007003900b7
:100e70000541b1000982cf00040039000541b100ed
:100e80000882cf00010039000541b100054252003f
:100e9000120032000a003b0082817100610164008f
:100ea0008100d1000080d3008984d3000884d3005e
:100eb0008b05e8000442e800f7ff3a00070037001e
:100ec0000804440089844c000000480081804800e8
:100ed0008b05e9000442e900f9ff3a002dff070005
:100ee0004f05be004f04be0000000600e171210066
:100ef0006a000700800078000080eb000100e0003d
:100f000004003500e1712100a0002000020007006c
:100f10004f80de0000000600889fbe008a1f780018
:100f20000004be00c900900069009000808f50004e
:100f30000500390009007800b70007008080eb0049
:100f40000000e000160035000845780049009000d8
:100f500008587800c00498001900780000b8a30071
:100f600004003a0000a8a30007003200ea4f540032
:100f700005003a00090078000d0007008080eb00b2
:100f80000000e00006003a0000c0200019006000e8
:100f90000200320049009000e00498008a80fb00c3
:100fa000010078004f0578004f04be0000000600e5
:100fb000889fbe008a1f7800000478000800e000c7
:100fc0000d003a00c8762100700544008004eb0053
:100fd000580078000000e00004003200f4ff070031
:100fe0000000e00001003d008084eb008a0f540007
:100ff000f7ff3a00250037000000220018006000cb
:101000008004eb0021003200a80490000f0037009c
:1010100009015100384090000000fb008900780071
:101020004bfe07000000e00007003c002800900095
:101030004004980060049800500c98001890a0009c
:101040008084eb0011003700808444004801900048
:10105000828f5400eeff3900280090004004980071
:101060009800780002c020000281600001003a0070
:101070003800900001e8a3000200320060049800ec
:1010800001003700500c98008004eb000900780044
:101090004f0578004f04be0000000600889fbe0088
:1010a0008a9fbe0080047800010478002c0037007d
:1010b000c800900068009000808f50000400390044
:1010c00008007800540007000000e00037003500f9
:1010d000004020001800600009003200a10020003c
:1010e0000900780042000700800578000b00e0004e
:1010f00003003200618514000a85450004003700b2
:101100000900780034000700000578008005eb0036
:1011100048009000e8009000808050008a8f5000c6
:1011200002003100010578008005eb000a0178001b
:101130008900780021000700480090000a00400064
:10114000400498000b00e000040032000800780022
:1011500097ff07000000e00014003a008a84440072
:101160001904e000d2ff3a0000802000180060005f
:1011700006003200080078008dff0700800078002c
:101180000080eb000100e00009003a0001c02000ef
:10119000988060000000eb000500320048009000dd
:1011a000600498000000eb00010037000080eb00b5
:1011b0004f05be004f04be0000000600800178000d
:1011c00002003700b15978000201e9000200e00096
:1011d000fcff3a0000000600800078000101780062
:1011e0003104e000fdff3a0000005100000006005d
:1011f0000001eb0000027800b041780081cf51007f
:1012000001003a00040178000304e000f9ff3a000d
:101210000200780000000600889fbe008a1f780048
:1012200000047800c8009000680190000000eb0006
:10123000828f50003c0039001800780022002900fd
:1012400002016000e20f510007003200012024007b
:101250000000e00001003d0001202000008c700033
:101260000080eb0030003700020026000200600022
:10127000820f500009003a0038009000808f500023
:10128000060039000800780049ff07008000780058
:101290000080eb000100e00023003a001805780010
:1012a00000c020000000650018003a00a80490006b
:1012b0006002200008004000808f540013003a00b4
:1012c000002020002f030700200498000000e00009
:1012d00005003a0029049800490498008904e800b0
:1012e00039049800080037000a60a0000a0c780052
:1012f00040049800012020008080400031049800c4
:10130000400c9800500c98000c000700280090003a
:1013100050049800380090006004980000002600f7
:10132000180c70000000eb004f0578004f04be0061
:101330000000060000a4200062003700881f78002b
:10134000a87f21001804e00003003a00f9ff07001d
:1013500020c0b300004c78004f0478000000060065
:10136000889fbe00000478000800780010ff070086
:1013700080047800000420001800600002003200a1
:1013800028009000460207000000eb0020049800af
:10139000384090000004e000050035000000fb002c
:1013a00038fd07000000e000010032008084eb00ff
:1013b000181090000000e000080032003afd07001d
:1013c0000000e000010032008084eb001810900063
:1013d000330207000000eb00101498000008200002
:1013e00018006000150032000001eb006000b8003a
:1013f0000202d000e376210003024200940f1400a1
:1014000005003a0000004000818048000080410053
:101410000008eb000600370061004000e080480053
:101420000201e800e80f5000e08f5800f0ff3a009a
:10143000080078001a0207000e003700000c780040
:1014400000c0eb003044980060022000080040001b
:10145000200498004004980050049800400c980024
:1014600060049800500c98007004980076004400c6
:10147000000c9800090078004f04be000000060030
:10148000881f78000004eb006140b800e2ff2f00e5
:10149000f3ff2f0007050700c277210080004100fd
:1014a000110078000000e00001003200acff0700ee
:1014b0000804e800e80f5400f3ff3a004f047800f6
:1014c00000000600010020000100e00009003200d9
:1014d000010080000100e000060032008100e90008
:1014e000010088008100d00002008000828040005e
:1014f0008008780000000600889fbe000004780085
:1015000001007800820478008801780009017800e1
:101510001100200014020700890f50000100320062
:101520000004eb00080078004f04be000000060035
:101530000000fa00e88157004fb99700e1712100df
:10154000c0a72000020007000080fa00000006008b
:101550006200fa00889fbe008a1f780000057800ac
:1015600081047800020478008300780080f92f005d
:101570000f004000c60407009a979f00a9979f009c
:101580000000eb00b09f9f001885fb008a04fb0061
:101590000a05ea004f55de0050022000808f5400fb
:1015a0000d003200e10f55000b003a000a017800ef
:1015b000880078002f9097009f919700030001000a
:1015c000a0979f000000e0008e0032003f98970037
:1015d0000000e800b09f9f000a0444005002200071
:1015e000808f5400040032000900e000e6ff3a005a
:1015f0003f989700840037000000eb00909f9f0009
:10160000809f9f00f0979f00e0979f00d0979f00da
:10161000c0979f000700370061a52100010050001e
:1016200000004000a1a42100808040005f98970046
:1016300011007000d09f9f00880478000904780092
:10164000384578008a00fb0060a521008102070070
:101650000000e000f0ff3a00a1c2b300814f550046
:101660000e003a00cf8897000180e900c08f9f00ec
:1016700010007800c09f9f000000e00005003d00c2
:101680000000ea00c09f9f005f9897000020a00024
:10169000d09f9f000904e8000f003700c09f9f0003
:1016a0000000eb0005003700f2ff2700820f50001a
:1016b00002003200ea00b90000804000090478000e
:1016c00088047800b900fb000103b100e98f5000e5
:1016d000f5ff3600c09f9f00e0c2b300984f100096
:1016e000020032000080eb0019003700a0c2b300f6
:1016f000d84f100007003a00cf8897000180e9001a
:10170000c08f9f0010007800a09f9f000804e80091
:10171000100037000000eb00a09f9f0088007800b9
:1017200005003700f3ff2700830f5000020032004e
:10173000ea00b90000004100010478008800780048
:101740003101fb000203b100e90f5100f5ff360043
:10175000a09f9f00984478008900fb0020a42100ee
:101760003c0207000000e000020032000804e8002c
:10177000010037008044eb00c97f9f0080c6b300a2
:1017800080cf540004003a0098cf14000a003a00b9
:101790006640500006003700c0c6b30080cf54003a
:1017a00005003a0098cf140003003a00654040005d
:1017b000c07f9f000804e8001801fb00e3fb2f0036
:1017c0008f81410081f92f008f804000a0f92f0008
:1017d0000f004000100007000000e00009003a0080
:1017e000e1fb2f008f804000a0f92f000f00400088
:1017f0006b0307000000e000020035000804e80069
:1018000061ff37000080eb004f0578004f04be00f9
:101810000080fa0000000600889fbe008a9fbe007c
:10182000e4c6b300844f5100ce00320010003c00eb
:101830006b425200844f51001800320005003c00fa
:1018400054c2b300844f51000601320084c5b30076
:101850000f00370044c6b300844f5100150032001a
:1018600065424200844f510001013a0011003700e7
:1018700004c7b300844f5100ed0032005f00350013
:1018800065424200844f51005c00320063424200d6
:10189000844f5100f6003a00580037001181e900ea
:1018a00082087800f0009000818141009249780020
:1018b000f500370020629000c5c6b300854f520086
:1018c00008003a009102780064825200840878008f
:1018d00094029000140278004fabde00860378007b
:1018e0001600370015c7b300854f520003003a00b9
:1018f000110478006802540005003700a5c6b30043
:10190000854f520008003a00910478006882540024
:10191000840878009402900024039000b40390009f
:1019200014027800050037001182e900840878006d
:1019300014027800cfa2de00612bb9000498be002b
:101940000690be00a060900088c6b30088cf50000b
:101950000d00320028c6b30088cf500004003a00c2
:101960000402fb00cfa2de00612bb90008003700a3
:1019700048c7b30088cf50000300320066444400db
:1019800088cf500004003a00cfa2de00612bb900de
:101990000498be000690be001002780090029000ed
:1019a00020039000b0039000f0009000e00f520080
:1019b000e08f5a00e00f5b00e08f5b0003003d000a
:1019c00001824100d5c2b3000a0037000012900026
:1019d0000418a3000300320001824100b5c2b30025
:1019e000040037000408a3005900320001824100be
:1019f00005c2b300054a780053003700206290000a
:101a0000c5c6b300854f520009003a0011057800a1
:101a1000640255008408780014047800940490004f
:101a20006055b8000802be000a03be001600370069
:101a300015c7b300854f520003003a0091047800a7
:101a40006882540005003700a5c6b300854f5200d8
:101a500008003a00110578006802550084087800f3
:101a60009402900024039000b403900014027800c4
:101a7000050037001182e90084087800140278001c
:101a80008002eb006033b8000498be000690be00f0
:101a9000a060900088c6b30088cf50000d003200cf
:101aa00028c6b30088cf500004003a000482fb002f
:101ab0008002eb006033b8000800370048c7b3006d
:101ac00088cf5000030032006644440088cf5000a5
:101ad00004003a008002eb006033b8000498be00b6
:101ae0000690be00801090000138a300180032005c
:101af000100278009002900020039000b003900044
:101b0000e00f5200e08f5a00e00f5b00e08f5b00b7
:101b10000f00320081c7b300814f51000300320033
:101b200081c5b300814f510009003a00f0009000d8
:101b30000182410005c3b300054a78008100e80036
:101b400001824100024a78008100e800710098009b
:101b5000f00090008181410063009800824078008d
:101b60003e003700a0619000c4c6b3001181e900b7
:101b700084cf5100220032000a003c00644252002f
:101b800084cf51002500320004c2e80084cf510008
:101b9000130032006842520084cf51001e003a0008
:101ba0000a00370044c7b30084cf51001b00320045
:101bb0006642420084cf5100180032006942520050
:101bc00084cf510014003a000500370082087800e5
:101bd0009200780040589000804878002c00370030
:101be0008208780092007800600a9000cfa2de00a0
:101bf000612bb9008498be008690be002400370097
:101c0000820878009200780060099000cf91de0091
:101c10008288be001e0037001181e900820878002a
:101c20009200780060089000800878001800370063
:101c30001181e9008208780012027800cfa2de004c
:101c4000612bb9000498be000690be00f000900021
:101c5000818141006300980081c7b3001301070030
:101c60000b003700f0009000818141000500370033
:101c7000f0009000818141000204e00001003a0080
:101c800052c2b300824978008100e80071009800d8
:101c90000000eb004f05be004f04be000000060030
:101ca0000000e0002f003200c0017800e38f5100f7
:101cb0002c0036000308a3002a003a00b1bf8000c0
:101cc0000100e00002003200810f500004003100ea
:101cd00011009800b0bf880016003700820078001d
:101ce000110190000200e00002003200800f51005c
:101cf000faff39001102780084824000850f5000fd
:101d000018003900808f520003003a008308420017
:101d100001007800070037000200e00003003200f5
:101d200083014000830f51000e003900120098001b
:101d300090009800900090000100e000090032003f
:101d400010014000828f500006003a00427f2100bf
:101d50000009eb001001780011084100910090008b
:101d60001100980000000600889fbe008a9fbe00f8
:101d70008c9fbe008e1f780000067800010478005a
:101d800002007800830478008881b9000207780097
:101d90000e00e000420032000800e0004100320086
:101da0008e057800c900900069009000808f500077
:101db000040039000900780017fd07000000e0006a
:101dc0002900350000402000190060000a003200a0
:101dd0000b017800a10020000c00780093000700a0
:101de000800678000d00e000060032006105160054
:101df0000a854600040037000b0578008006eb00da
:101e0000010037000b05780049009000e9009000c0
:101e1000808050008a8f5000020031000105780058
:101e20008006eb000a0178008c007800e3fc0700d4
:101e30008a855500490090000a004000c0049800bf
:101e40000d00e000040032000900780058fc070093
:101e50000000e00004003a000b00e0000200320045
:101e60000a064600cfff37000080200019006000fe
:101e700002003200090078004dfc070000c020007d
:101e8000190060000200320049009000e004980050
:101e90008b055700110009008885d8000100370024
:101ea0000000eb004f0778004f06be004f05be0054
:101eb0004f04be0000000600889fbe0000047800aa
:101ec000a1bf80000100e0000200320001007800a4
:101ed0000d003700b1bf8000607f21000400370093
:101ee000910f5400250036000180e8009100900019
:101ef0000100e000faff3a0010003700920f540092
:101f00001e0036000280e800100178000200e000a8
:101f1000faff3a0011017800b1bf8000607f210014
:101f200004003700910f5400140036000180e800cf
:101f300091009000828f5000faff3a00e9bf8000c4
:101f4000888f54000100310088047800090078006f
:101f50004c0007000000e00004003a00888f5400a5
:101f6000050032008904d100f5ff37000918780018
:101f70004bff0700d2ff37000000eb004f04be000c
:101f800000000600881f7800630440000800a100dc
:101f90008000eb00800f540021003600e30f540056
:101fa00001003e004800200008007800c2ff070042
:101fb0008000eb000000e000190032009000780083
:101fc0009101780064815100880f510003003100b5
:101fd00011019000020878000700370008814000d6
:101fe0000208780091019000130198001001780018
:101ff0001109140088087800100178000000eb0037
:102000000200e00004003200920190000300e000b2
:10201000010032000280e800a0bf88008180e80053
:10202000010078004f04780000000600030037002c
:10203000b0cf1000050032000201e90080017800f5
:102040000200e000faff3a000000050003007800fb
:1020500000000600020037000304e0000600320022
:102060000001780002007800b041780081cf510073
:10207000f9ff3a00010037000001eb000200780090
:1020800000000600800078000000eb000100e00086
:1020900005003400010078000cfa0700e10f400051
:1020a00001003a000000eb0000000600fc8747003a
:1020b000889fbe008a9fbe008c9fbe008e1f780046
:1020c0000006780080c5b30080cf50000a003200bf
:1020d0007740400080cf50000a0032006940400045
:1020e00080cf50000b00320010a1210080bf9f0064
:1020f000ae0020000a00370002a0210082bf9f002e
:102100000600370013a1210083bf9f008e0020002e
:102110000300370014a1210084bf9f000e0120009e
:102120001c0278009c0290002c039000bc039000dd
:102130000605be000404be0040c6b30080cf5000b8
:10214000030032006540400080cf50000b003a0091
:10215000e00f5200e08f5a00e00f5b00e08f5b0061
:1021600006003d006000b8006011b8000404500093
:10217000858458000605590087855900e80f5700e7
:102180000400320040002000f00f57003c003a00ed
:102190000100370030002000e00f5400e08f5c00a9
:1021a000e00f5d00e08f5d0004003a00dc08900065
:1021b0008d0120000100e000070032008e00e900e0
:1021c000888060008fba970081804200914078003b
:1021d000f1ef9f007d012000800078008100e90080
:1021e000050033008b05d1000a85d3008984d30014
:1021f0000884d300f9ff3700089ebe000a96be008f
:10220000130037008d06e9008e00e900848060002d
:102210000fb99700810041001141780083fd2f0024
:102220008d81410082f77900800178008301e90007
:10223000050033008783d1000683d3008582d30055
:102240000482d300f9ff3700049ebe000696be004c
:102250001c0278009c0290002c039000bc039000ac
:10226000e00f5200e08f5a00e00f5b00e08f5b0050
:10227000930034000d00e000e2ff3c0090003700c6
:102280002c60900081c6b300814f50000b003200db
:1022900006003c000004e00008003200e6c05000e8
:1022a000814f500052003a0004003700c1c6b3000d
:1022b000814f50004e003a00230037000800e00034
:1022c00004003a005c0890008d0120000000e0004e
:1022d00007003200110009000e84d8000fba9700e1
:1022e0000100420010407800f0ef9f007d012000c7
:1022f000110009000e84d8000b00370011000900fe
:102300000e04d8008d06e9008e81b9000204540045
:102310008fb89700088440009841780082fd2f0014
:102320000d01410083777900000478000800e00087
:10233000020032000d00e000f0ff3c00cfc4de00e0
:10234000614db90027003700e00f5400e08f5c00ba
:1023500004003a005c0890008d0120000000e000bd
:10236000080032006171b9000800be004e0107008c
:102370000fba97008000420091407800f1ef9f0073
:102380007d0120006171b9000800be0088fa0700d5
:102390000c0037006171b9000800be00d0f90700d9
:1023a0008d06e90080f1b900020454008fba97004d
:1023b000088442009841780082fd2f000d01410001
:1023c000837779000004be00e00f5000e08f5800d2
:1023d000020032000d00e000eeff3c004fcdde00b9
:1023e0008a057800089ebe000a96be0034003700b9
:1023f000e00f5400e08f5c00e00f5d00e08f5d00b7
:1024000004003a005c0890008d0120000000e0000c
:102410000a0032006172b900612bb9000800be00e9
:102420000a01be00cb0107000fba970080004200ee
:1024300091407800f1ef9f007d0120006172b900aa
:10244000612bb9000800be000a01be00ba010700f6
:102450000e0037006172b900612bb9000800be00a0
:102460000a01be00bf0107008d06e90080f2b90035
:10247000040454008fba9700088442009842780000
:1024800084fd2f000d02420085777a00009ebe0079
:102490000296be001c0478009c0490002c0590005d
:1024a000bc059000e00f5400e08f5c00e00f5d0081
:1024b000e08f5d00020034000d00e000e5ff3c000d
:1024c000e80f570010003a000c1090000038a300ed
:1024d0000d003200f78f560006003e0080fd2f00f1
:1024e0000d004000ef40780000c3b30080cf5000e3
:1024f0000500320002c3b30071fd2f008d80400043
:102500008d06e90082f7780078811600120e980097
:102510006c00900083fd2f008f8141008d80410071
:1025200026fb07001c089000dc089000810f50007b
:1025300006003d0000805000000e98000c10900036
:102540000040a100001698000f0037000100e000d5
:102550000d003d008c109000f4806000f08f500062
:1025600009003a007c099000fc00900081005100b5
:102570000c09900082805000008050004240a90069
:1025800001003400000e98004f0778004f06be008f
:102590004f05be004f04be00cf01b1000000060091
:1025a0000400fa00889fbe008a9fbe008c1f78003e
:1025b0000004780001067800f80d90007800900083
:1025c0008085550008089000808555001808900007
:1025d00080855500280890008085550038089000b7
:1025e0008085550048089000808555000002220033
:1025f00090bf9f0000032300a0bf9f000810900021
:102600000028a30015003a000b00e000130034007e
:102610000b0578008a047800e20f550001003600af
:1026200029002000c801900009017800ee805700c1
:102630005800900003000100500498000000e000e2
:102640008c0032006808900009004000600c98007f
:10265000090555004240a900eeff3c0078019000ba
:102660000200e0000c003400c80190008c007800eb
:102670005800900003000100500498008080eb0097
:102680000000e0007c003200e80890007800900034
:1026900000804000600c9800880c90000900e00069
:1026a0001100340009057800e28f54000100360063
:1026b0002a002000c80190000a017800ec80570031
:1026c0005800900003000100500498000000e00052
:1026d00068003200680890000a004000600c980012
:1026e0008a845400edff3700180990000200e000d2
:1026f0000c003400c8019000e800900058009000e1
:1027000003000100500498008080eb000000e0000e
:1027100059003200e808900018089000008040003e
:10272000600c9800a80c90000900e0001100340033
:1027300009057800e28f5400010036002a002000cd
:10274000c80190000a017800ec8057005800900002
:1027500003000100500498000000e0004500320032
:10276000680890000a004000600c98008a845400b9
:10277000edff3700380990000200e0000e00340041
:10278000e80090001808900080804000c801900088
:102790005800900003000100500498008080eb0076
:1027a0000000e00034003200e80890003808900093
:1027b00000804000600c9800c80c90000900e00008
:1027c0001100340009057800e28f54000100360042
:1027d0002a002000c80190000a017800ec80570010
:1027e0005800900003000100500498000000e00031
:1027f00020003200680890000a004000600c980039
:102800008a845400edff3700081090008000eb0030
:102810000028a300180032000b00e000160034006e
:102820008b04780009057800e28f5400010036001f
:102830002a002000c80190000a017800ee805700ad
:102840005800900003000100500498000000e000d0
:1028500008003200680890000a004000600c9800f0
:102860008a8454004240a900eeff3c008000eb0047
:10287000010037008080eb00010078004f067800ef
:102880004f05be004f04be000080fa0000000600a5
:10289000010878000000060000c0da000000060011
:1028a00000c0da000000060041f907000400be0085
:1028b00000000600020ab900001bb9000200b800bf
:1028c000810042008100430000000600889fbe0096
:1028d0008a9fbe0030044200b0844a0030054b009d
:1028e00090854b006000b1000898be000a90be00c1
:1028f0000440e10005c8e10006d0e10007d8e1008e
:1029000002003100680040001008e8004f05be00da
:102910004f04be0000000600889fbe008a9fbe00d4
:10292000100478009004900020059000b0059000fd
:102930000418540005985c0006185d0007985d00b7
:10294000110020000440e10005c8e10006d0e100cc
:1029500007d8e100010039008000eb00108810006a
:102960004f05be004f04be00000006001200fa0032
:10297000889fbe008a9fbe008c9fbe00e0b79f006c
:10298000f1b79f0082bf9f0093bf9f000605be0066
:102990000404be000000eb00d0b79f00c0b79f004a
:1029a000b0b79f00a0b79f0090b79f000006eb0054
:1029b0005fb19700cfb09700820141003fb0970010
:1029c0000200e00004003d00370007007e80570051
:1029d000beff070003003700330007007e8057006a
:1029e000cdff0700dfb697000d00e0000c003500ba
:1029f0006fb29700ffb297000fbb97009fbb970085
:102a000010002000010020006011b80000027200d8
:102a10008182720002037300838373001b0007002e
:102a20000c06e80001042000810f5600e0ff3a0088
:102a30000d00e00004003d000802be000a03be00d5
:102a40007e805700a1ff07005fa897000000e0000c
:102a500005003a001fb29700afb297003fb397004e
:102a6000cfb39700090007006fb09700ffb0970041
:102a70000fb997009fb997004f06be004f05be00e3
:102a80004f04be000080fa000000060001000700ad
:102a900000000600a4b79f00b5b79f00c6b79f000f
:102aa000d7b79f00000006004f09de008281710049
:102ab000b3b79f004f01de0081804000828070002c
:102ac000a1b79f008fb097004f09de0000004000c3
:102ad0000200700090b79f007fa897004f01de00b2
:102ae000818040008280700081b79f000d00070048
:102af0004f3ade000000400004007000f0af9f007d
:102b0000080007000402420085824a0006034b00c9
:102b100087834b00dfff07000802be000a03be00e8
:102b2000000006002fb29700bfb297004fb3970086
:102b3000dfb3970000000600881f7800180020000f
:102b4000881f780089ff07008f87e9004f0478000d
:102b500000000600801feb0084ff07008f87e9005c
:102b600000000600889fbe008a9fbe00e00f500054
:102b7000e08f5800e00f5900e08f59000c003d0035
:102b80006044b8006055b8000000540081805c00cb
:102b900002015d0083815d00180020001500070020
:102ba00008003d00180007000004eb000500370096
:102bb0000004eb000f00070002003d0012000700b8
:102bc00018002000dcff07000800e00006003200cb
:102bd0006022b8006033b8000000520081805a00c3
:102be00002015b0083815b004f05be004f04be0005
:102bf00000000600e00f5200e08f5a00e00f5b007b
:102c0000e08f5b00000006006044b8006055b8002b
:102c10000402540085825c0006035d0087835d002a
:102c200000000600889fbe008a9fbe008c1f7800af
:102c3000e00f5000e08f5800e00f5900e08f59007e
:102c40000d003d006044b8006055b800000054001d
:102c500081805c0002015d0083815d001c0020001a
:102c60000820e10009a8e1000ab0e1000bb8e1008a
:102c70000d003d00080037000006eb00e00f520099
:102c8000e08f5a00e00f5b00e08f5b0006003d0024
:102c90006044b8006055b8000402540085825c00ae
:102ca00006035d0087835d00aaff07000c00e000bb
:102cb000060032006022b8006033b8000000520005
:102cc00081805a0002015b0083815b004f0678001f
:0c2cd0004f05be004f04be0000000600cf
:020000040000fa
:102cdc0065ff00006aff00006eff000073ff00003c
:102cec0077ff00007cff000080ff000085ff0000e4
:102cfc008aff00008eff000093ff000097ff00008a
:102d0c009cff0000a0ff0000a5ff0000aaff000030
:102d1c00aeff0000b3ff0000b7ff0000bcff0000d7
:102d2c00c1ff0000c5ff0000caff0000ceff00007d
:102d3c00d3ff0000d8ff0000dcff0000e1ff000023
:102d4c00e6ff0000eaff0000efff0000f4ff0000c8
:102d5c00f8ff0000fdff000001000000060000006d
:102d6c000b0000000f000000140000001900000010
:102d7c001e00000022000000270000002c000000b4
:102d8c0030000000350000003a0000003e0000005a
:102d9c0043000000480000004d00000051000000fe
:102dac00560000005b0000006000000064000000a2
:102dbc00690000006e000000730000007800000045
:102dcc007c00000081000000860000008b000000e9
:102ddc009000000094000000990000009e0000008c
:102dec00a3000000a8000000ad000000b10000002e
:102dfc00b6000000bb000000c0000000c5000000d1
:102e0c00ca000000cf000000d4000000d800000071
:102e1c00dd000000e2000000e7000000ec00000014
:102e2c00f1000000f6000000fb00000000010000b3
:102e3c00050100000a0100000f0100001401000050
:102e4c00190100001e0100002301000028010000f0
:102e5c002d01000032010000370100003c01000090
:102e6c0041010000460100004b010000510100002f
:102e7c00560100005b0100006001000065010000cc
:102e8c006a0100006f010000740100007a0100006b
:102e9c007f01000084010000890100008e01000008
:102eac0093010000990100009e010000a3010000a5
:102ebc00a8010000ae010000b3010000b801000041
:102ecc00bd010000c3010000c8010000cd010000dd
:102edc00d3010000d8010000dd010000e301000077
:102eec00e8010000ed010000f3010000f801000012
:102efc00fe01000003020000080200000e020000a8
:102f0c0013020000190200001e020000240200003f
:102f1c00290200002f020000340200003a020000d7
:102f2c003f020000450200004a020000500200006f
:102f3c00560200005b020000610200006602000005
:102f4c006c02000072020000770200007d0200009b
:102f5c0083020000880200008e0200009402000030
:102f6c009a0200009f020000a5020000ab020000c4
:102f7c00b1020000b6020000bc020000c202000058
:102f8c00c8020000ce020000d4020000d9020000ea
:102f9c00df020000e5020000eb020000f10200007d
:102fac00f7020000fd02000003030000090300000b
:102fbc000f030000150300001b0300002103000099
:102fcc00270300002d030000330300003903000029
:102fdc0040030000460300004c03000052030000b5
:102fec00580300005f030000650300006b03000042
:102ffc0071030000780300007e03000084030000ce
:10300c008a03000091030000970300009e03000058
:10301c00a4030000aa030000b1030000b7030000e2
:10302c00be030000c4030000cb030000d10300006a
:10303c00d8030000de030000e5030000ec030000f1
:10304c00f2030000f9030000ff0300000604000077
:10305c000d040000140400001a04000021040000f8
:10306c00280400002f040000350400003c0400007c
:10307c00430400004a0400005104000058040000fe
:10308c005f040000660400006d040000740400007e
:10309c007b040000820400008904000090040000fe
:1030ac00970400009e040000a6040000ad0400007c
:1030bc00b4040000bb040000c3040000ca040000f8
:1030cc00d1040000d8040000e0040000e704000074
:1030dc00436c000065610000722000007469000000
:1030ec006d6500006f750000740d0000005200004b
:1030fc00657100007565000073740000696e000056
:10310c00672000006e6500007720000064610000fd
:10311c00746100000d000000526500007175000024
:10312c006573000074200000746900006d65000078
:10313c006f750000740d0000004300005243000046
:10314c0020650000727200006f7200000d0000001c
:10315c006d61000078200000616d0000707300004c
:10316c0020250000640d00000a0000006d610000c5
:10317c0078200000727000006d20000025640000b3
:10318c000d0a000000740000656d00007020000046
:10319c00706f00007765000072200000256400004d
:1031ac000d0a0000007500007a6b0000202500005d
:1031bc00640d00000a0000006d6f0000746f0000c9
:1031cc00722000006375000072720000656e0000d2
:1031dc0074200000256400000d0a0000007200003d
:1031ec00706d000020250000640d00000a00000036
:1031fc0073740000617400007573000020250000da
:10320c006c7500000d0a000000640000657200007f
:10321c0061740000696e000067200000256c0000de
:10322c00750d00000a0000006d61000078200000a0
:10323c00727000006d2000006c6900006d69000068
:10324c0074200000256400000d0a0000006d0000d1
:10325c0061780000206d00006f7400006f72000038
:10326c002063000075720000726500006e7400002f
:10327c00206c0000696d00006974000020250000be
:10328c00640d00000a0000006d6100007820000051
:10329c00696e0000707500007420000063750000fa
:1032ac0072720000656e0000742000006c690000f2
:1032bc006d69000074200000256400000d0a0000f8
:1032cc00006900006e70000075740000206300003f
:1032dc0075720000726500006e74000020250000fd
:1032ec00640d00000a000000746500006d700000a1
:1032fc00206500006c650000632000002564000060
:10330c000d0a000000000000526100007720000050
:10331c00746500006d700000203100002025000055
:10332c00640d00000a000000546500006d70000080
:10333c002031000020250000640d00000a00000070
:020000040000fa
:10334c000200fa00000f78001e007800e10f500018
:10335c0009003200e10f500005003900e20f500067
:10336c0007003200e30f500007003200080037005e
:10337c0001eba8000600370011eba8000400370091
:10338c0021eba8000200370031eba8000000000080
:10339c000080fa00000006000400fa00000f78001c
:1033ac00110798001e007800e10f50000b0032004e
:1033bc00e10f500005003900e20f50000b00320005
:1033cc00e30f50000d003200100037009e009000fb
:1033dc0021588800062bef000c0037009e0090004f
:1033ec00a1588800162bef00080037009e009000b3
:1033fc0021598800262bef00040037009e00900016
:10340c00a1598800362bef00000000000080fa0064
:10341c00000006000400fa00000f78001107980065
:10342c001e007800e10f50000a003200e10f50003e
:10343c0005003900e20f500009003200e30f500084
:10344c000a0032000c0037001e0090006058880003
:10345c00090037001e009000e05888000600370075
:10346c001e00900060598800030037001e00900079
:10347c00e0598800000000000080fa0000000600ff
:10348c000000fa002468a9008c24ef0001248000bd
:10349c00f08f2f000080600000a0a00000248800a6
:1034ac000000000001248000000e200080806000dd
:1034bc0000082000808f5000faff3a00e000200046
:1034cc0080248800801920009024880010002c0093
:1034dc00302488009424ef008024ef008004a8009e
:1034ec00802580007f00600080258800a02580005a
:1034fc007f006000a0258800c02580007f00600050
:10350c00c025880081258000c0ff2f00008060004e
:10351c0080258800a1258000c0ff2f00008060005e
:10352c00a0258800c1258000c0ff2f00008060000e
:10353c00c0258800b224ef00b624ef00ba24ef00b7
:10354c00b064a900b464a900b864a9008004a900ff
:10355c00b0e4a800b1e4a800b2e4a800b3e4a80069
:10356c00b4e4a800b5e4a800b6e4a800b7e4a80049
:10357c0081258000c0ff2f0000806000802588001e
:10358c0081258000f0cf2f0000806000802588000e
:10359c0091258000c0ff2f000080600090258800de
:1035ac0091258000f0cf2f000080600090258800ce
:1035bc00a1258000c0ff2f0000806000a02588009e
:1035cc00a1258000f0cf2f0000806000a02588008e
:1035dc00b1258000c0ff2f0000806000b02588005e
:1035ec00b1258000f0cf2f0000806000b02588004e
:1035fc00a024ef00a224ef00a824ef00aa24ef00df
:10360c008a24a90001248000f08f2f000080600024
:10361c00002488000000000001248000000e20001f
:10362c00008060000000e000fbff3a000080fa0020
:10363c00000006000000fa00214c20000000eb0006
:10364c0074ff070000802100800078000000eb0070
:10365c0051ff07000000eb0039ff07000080fa0063
:10366c00000006000000fa00014c200010002000b1
:10367c0068ff070000802100800078001000200007
:10368c0045ff0700100020002dff07000080fa0006
:10369c00000006000a00fa00300798004107980065
:1036ac00004b2000000f78000040eb0040479800d2
:1036bc000000eb0010079800260037001e00780071
:1036cc009040780000c8b30000c060000004e00027
:1036dc001c0032001e00780010407800684060002a
:1036ec000004e00017003a00018021001e00900049
:1036fc004400dd0000804000ce009000a4010700d3
:10370c003e00900000407800e34060001e0078000e
:10371c00e3c0600090417800c2cfb30002c16100e9
:10372c0081407100014878001e00780090407800bc
:10373c000134a0000148780010c0b3004047980045
:10374c00070037001e0fe8001e0090000000e80084
:10375c00100798001e009000e70f5000d7ff3600ae
:10376c004e4090000080fa00000006000800fa00ad
:10377c00300798000040eb0020479800012580009e
:10378c00210798002e0090000000e0002800320075
:10379c000000eb00000f78002000370080818000d3
:1037ac00ae0090000008de00610060000040780070
:1037bc000004e0000e0032008081800000407800a0
:1037cc00be00900070000700808180001100200076
:1037dc000008dd000080ea008000780000258000f1
:1037ec00008060000025880010c0b30020479800be
:1037fc00808180000000e80080818800808180004a
:10380c00ef0f5000010036003030ef002e409000da
:10381c000004e00005003a001e0fe8001e007800ce
:10382c00ef0f5000ddff36000100370000000000f4
:10383c002e4090000080fa00000006000000fa0004
:10384c00502480004d00de00614060000080fb00d1
:10385c0000f0a7000000ea000000ea004f00de00c4
:10386c00004078000080fa00000006000000fa001a
:10387c00502480004b00de00614060000080fb00a3
:10388c0000f0a7000000ea000000ea004f00de0094
:10389c00004078000080fa00000006000000fa00ea
:1038ac00502480004c00de00614060000080fb0072
:1038bc0000f0a7000000ea000000ea004f00de0064
:1038cc00004078000080fa00000006000600fa00b4
:1038dc000000eb00000f7800012580002107980004
:1038ec002e0090000000e000110032000000eb0000
:1038fc00100798000b0037001e009000ae009000df
:10390c000008de0061006000004078000004e00068
:10391c00010032001e0fe8001e0090000000e800bd
:10392c00100798001e009000ef0f5000f2ff3600b9
:10393c001e007800004078000080fa0000000600ad
:10394c000000fa008ac4a9008cc4a8002468a8004e
:10395c0001248000f08f2f00008060000080a00008
:10396c00002488000000000001248000000e2000cc
:10397c008080600000022000808f5000faff3a0027
:10398c000080fa00000006000c00fa00004f9800be
:10399c00510798000000eb00100798000000eb00a6
:1039ac00000f78006000b8002007980031079800dd
:1039bc000e4890000080fb00c400dd000080210058
:1039cc000080400010007800610060001007980033
:1039dc001e0090000000e00017003a000e48900016
:1039ec000080fb00c400dd0000802100008040004e
:1039fc0090007800c0ff2100008060004200de00d3
:103a0c008000eb005e0190000089be005e0090001b
:103a1c0041c0b300414098000e4890000080fb006c
:103a2c00c400dd0000802100008040001000780000
:103a3c00620f60006b0037000e4890000080fb00a6
:103a4c00c400dd00008021000080400010007800e0
:103a5c006101b800c0ff21000100200002027800c3
:103a6c0003017800800178000100780003026200f5
:103a7c00000061008000eb00c000dd0000002000b1
:103a8c000001be006120b80000017100818171004d
:103a9c0022079800330798002e009000be0090007b
:103aac00c000dd00000020005e0190000089be0017
:103abc005e00900010027800900290000e4890007a
:103acc000080fb004400dd008080e80000802100c5
:103adc0000804000100078006101b800f0ff200069
:103aec0001002000020378000301780080017800b7
:103afc000100780003036300000061008000eb000c
:103b0c00c000dd00000020000001be006130b800e4
:103b1c0000017100818171004618dd00ca10de00c1
:103b2c00810070004610dd000400400085804800d4
:103b3c005e0190000089be005e00900010027800cb
:103b4c00900290000e4890000080fb004400dd00c5
:103b5c00e40040000080210000804000100078004c
:103b6c004a00de006101b800f0ff2f0001002000c8
:103b7c0002037800030178008001780001007800ce
:103b8c0003036300000061008000eb00c000dd0057
:103b9c00000020000001be006130b800000171007f
:103bac008181710004004100858049005e01900014
:103bbc000089be005e00900031c0b3004140980007
:103bcc000e4890000080fb004400dd00e400400043
:103bdc000080210000804000900078000020200030
:103bec00008f60001e0078000000e000040032002e
:103bfc005e00900021c0b300514098006200370075
:103c0c005e00900011c0b300514098000e48900027
:103c1c000080fb004400dd00e60040000080210035
:103c2c000080400010007800804078005e0090001a
:103c3c00714098000e4890000080fb004400dd00ad
:103c4c00e600400000802100008040001000780059
:103c5c004800de00804078005e009000014898002b
:103c6c000e4890000080fb004400dd00e80040009e
:103c7c000080210000804000100078008040780017
:103c8c005e009000114898000e4890000080fb00e8
:103c9c004400dd00e800400000802100008040006e
:103cac00100078004800de00804078005e00900034
:103cbc00214898000e4890000080fb004400dd0075
:103ccc00ea004000008021000080400010007800d5
:103cdc00804078005e009000314898000e489000bb
:103cec000080fb004400dd00ea0040000080210061
:103cfc0000804000100078004800de008040780012
:103d0c005e009000414898000e4890000080fb0037
:103d1c004400dd00ec0040000080210000804000e9
:103d2c0010007800804078005e00900051489800a8
:103d3c000e4890000080fb004400dd00ec004000c9
:103d4c000080210000804000100078004800de0058
:103d5c00804078005e009000614898000e4890000a
:103d6c000080fb004400dd00e400400000802100e6
:103d7c00008040001000780000407800ef406000a8
:103d8c005e009000614098000080fa000000060080
:103d9c000400fa00000f7800110798001e00900034
:103dac0040409000e44f500014003a001e00900078
:103dbc00900090001000780080007800f07f2000c8
:103dcc0000806000c200dd001e0078000108780051
:103ddc001e80e8008000eb00010878009e0078004f
:103dec00648040009e009000e14090008180fb00c8
:103dfc00ef80600001087800240037001e0090005e
:103e0c0090009000100078004008de0080007800e0
:103e1c00c0ff210000806000800078000100a0003d
:103e2c001e007800010878001e81e8001e0090003a
:103e3c009000900010007800ca09dd004600de00fa
:103e4c0000807100c608de0080007800f0ff2000c2
:103e5c0000806000000978009e00780064814000ba
:103e6c001e009000604090000080fb00ef0160009d
:103e7c001e00900090009000100078000000780068
:103e8c004a00dd0000804100000978009e017800a6
:103e9c00668041009e009000814890008180fb006c
:103eac004809dd009e009000f14090008180fb00ed
:103ebc0081004100010878009e0078006880400075
:103ecc009e009000a14890008180fb004809dd0015
:103edc009e009000914890008180fb008100410081
:103eec00010878009e0178006a8041009e009000d5
:103efc00c14890008180fb004809dd009e009000c5
:103f0c00b14890008180fb008100410001087800dd
:103f1c009e0078006c8040009e009000e14890006c
:103f2c008180fb004809dd009e009000d148900084
:103f3c008180fb0081004100010878000080fa00bc
:043f4c00000006006b
:020000040000fa
:103f5000221a000020000000800000002c10000049
:103f60000200000082000000ffff00002e10000091
:103f700002000000800000007e17000076000000b4
:103f80008000000000180000000200008000000017
:103f9000301000000200000080000000f817000050
:103fa000020000008000000032100000020000004b
:103fb0008000000056160000a000000080000000f5
:103fc000341000000200000082000000ffff00002b
:103fd00000100000240000008000000036100000e7
:103fe0000200000082000000ff0000003810000006
:103ff00002000000800000003a1000001c060000d3
:104000008200000000000100000200000300040024
:1040100000050000060007000008000009000a0073
:10402000000b00000c000d00000e00000f0010003f
:104030000011000011001200001300001400150010
:104040000016000017001800001900001a001b00dd
:10405000001c00001d001e00001f000020002100a9
:104060000022000023002400002500002600270075
:104070000028000029002a00002b00002c002d0041
:10408000002e000030003100003200003300340008
:1040900000350000360037000038000039003a00d3
:1040a000003b00003c003d00003e00003f0040009f
:1040b000004100004200430000440000450046006b
:1040c0000047000048004900004b00004c004d0034
:1040d000004e00004f0050000051000052005300fd
:1040e00000540000550056000057000058005900c9
:1040f000005b00005c005d00005e00005f0060008f
:10410000006100006200630000640000650066005a
:104110000068000069006a00006b00006c006d0020
:10412000006e00006f0070000072000073007400e9
:1041300000750000760077000078000079007a00b2
:10414000007c00007d007e00007f00008000810078
:104150000082000083008500008600008700880040
:10416000008900008a008b00008d00008e008f0007
:1041700000900000910092000094000095009600cd
:104180000097000098009900009a00009c009d0094
:10419000009e00009f00a00000a20000a300a40059
:1041a00000a50000a600a70000a90000aa00ab001f
:1041b00000ac0000ad00af0000b00000b100b200e4
:1041c00000b30000b500b60000b70000b800b900a9
:1041d00000bb0000bc00bd0000be0000bf00c1006d
:1041e00000c20000c300c40000c60000c700c80031
:1041f00000c90000cb00cc0000cd0000ce00d000f4
:1042000000d10000d200d30000d50000d600d700b6
:1042100000d80000da00db0000dc0000dd00df0079
:1042200000e00000e100e20000e40000e500e6003c
:1042300000e70000e900ea0000eb0000ed00ee00fe
:1042400000ef0000f000f20000f30000f400f600c0
:1042500000f70000f800fa0000fb0000fc00fe0080
:1042600000ff00000001010001030100040105003e
:104270000107010008010900010b01000c010d00fc
:10428000010f0100100111000113010014011500bc
:104290000117010018011900011b01001c011e007b
:1042a000011f01002001220001230100240126003a
:1042b0000127010029012a00012b01002d012e00f8
:1042c000012f0100310132000134010035013600b7
:1042d0000138010039013b00013c01003d013f0074
:1042e0000140010042014300014501004601470031
:1042f000014901004a014c00014d01004f015000ed
:1043000001510100530154000156010057015900a9
:10431000015a01005c015d00015e01006001610065
:1043200001630100640166000167010069016a0020
:10433000016c01006d016f000170010072017300da
:104340000175010076017800017901007b017c0094
:10435000017e01007f01810001820100840185004e
:104360000187010088018a00018b01008d018e0008
:1043700001900100920193000195010096019800bf
:10438000019901009b019c00019e0100a001a10078
:1043900001a30100a401a60001a70100a901ab002f
:1043a00001ac0100ae01af0001b10100b301b400e6
:1043b00001b60100b701b90001bb0100bc01be009c
:1043c00001bf0100c101c30001c40100c601c80052
:1043d00001c90100cb01cc0001ce0100d001d10008
:1043e00001d30100d501d60001d80100da01db00bc
:1043f00001dd0100df01e00001e20100e401e50070
:1044000001e70100e901ea0001ec0100ee01f00022
:1044100001f10100f301f50001f60100f801fa00d5
:1044200001fb0100fd01ff00010102000202040086
:104430000206020008020900020b02000d020f0032
:1044400002100200120214000216020017021900e4
:10445000021b02001d021f00022002002202240093
:104460000226020027022900022b02002d022f0043
:1044700002310200320234000236020038023a00f1
:10448000023b02003d023f000241020043024500a0
:104490000247020048024a00024c02004e0250004d
:1044a00002520200540255000257020059025b00fa
:1044b000025d02005f0261000263020065026600a5
:1044c000026802006a026c00026e02007002720052
:1044d0000274020076027800027a02007c027e00fa
:1044e00002800200820284000286020087028900a4
:1044f000028b02008d028f00029102009302950050
:104500000297020099029b00029d02009f02a100f7
:1045100002a30200a502a70002aa0200ac02ae009c
:1045200002b00200b202b40002b60200b802ba0041
:1045300002bc0200be02c00002c20200c402c600e9
:1045400002c80200cb02cd0002cf0200d102d3008c
:1045500002d50200d702d90002db0200de02e00031
:1045600002e20200e402e60002e80200ea02ed00d4
:1045700002ef0200f102f30002f50200f702fa0076
:1045800002fc0200fe020000030203000503070014
:10459000030903000b030e000310030012031400b1
:1045a0000316030019031b00031d03001f03220051
:1045b0000324030026032900032b03002d032f00ef
:1045c0000332030034033600033903003b033d008c
:1045d00003400300420344000347030049034b0028
:1045e000034e0300500352000355030057035900c4
:1045f000035c03005e03610003630300650368005e
:10460000036a03006d036f000371030074037600f7
:10461000037903007b037e0003800300830385008e
:10462000038703008a038c00038f03009103940027
:104630000396030099039b00039e0300a003a300bd
:1046400003a50300a803ab0003ad0300b003b20051
:1046500003b50300b703ba0003bc0300bf03c200e5
:1046600003c40300c703c90003cc0300cf03d10078
:1046700003d40300d703d90003dc0300df03e10008
:1046800003e40300e703e90003ec0300ef03f10098
:1046900003f40300f703f90003fc0300ff03010028
:1046a0000404040007040a00040c04000f041200b0
:1046b0000415040018041a00041d0400200423003b
:1046c0000425040028042b00042e040031043400c7
:1046d0000436040039043c00043f04004204450051
:1046e000044804004a044d000450040053045600da
:1046f000045904005c045f0004620400650468005f
:10470000046b04006e0471000474040077047a00e2
:10471000047d0400800483000486040089048c0066
:10472000048f040092049500049804009b049e00ea
:1047300004a10400a404a70004aa0400ad04b1006d
:1047400004b40400b704ba0004bd0400c004c300ec
:1047500004c70400ca04cd0004d00400d304d70069
:1047600004da0400dd04e00004e30400e704ea00e6
:1047700004ed0400f104f40004f70400fa04fe0060
:104780000401050004050800050b05000e051200d4
:104790000515050018051c00051f0500220526004b
:1047a000052905002d0530000534050037053a00c0
:1047b000053e050041054500054805004c054f0034
:1047c0000553050056055a00055d050061056400a6
:1047d000056805006c056f000573050076057a0015
:1047e000057d050081058500058805008c05900084
:1047f0000593050097059b00059e0500a205a600f0
:1048000005aa0500ad05b10005b50500b905bc0058
:1048100005c00500c405c80005cb0500cf05d300c1
:1048200005d70500db05df000500000024100000af
:104830000800000080000000f6160000880000005c
:104840008200000001000000001c17001d171c0062
:10485000171c17001c171c00170c17000000000085
:104860000000000000000000000000000000000048
:1048700000000000000000000002080001014400e8
:104880001745170044174400174417004417340015
:104890001700000000000000000000000000000001
:1048a0000000000000000000000000000000020006
:1048b000080202006c176d00176c17006c176c0073
:1048c000176c17005c1700000000000000000000db
:1048d00000000000000000000000000000000000d8
:1048e00000000000f6161e0017461700000000002a
:1048f000000000000000000000000000fa170000a7
:104900000200000080000000421a00001a000000af
:1049100082000000686a6c00747a4c00000001009c
:104920000002000004000800001000000000200049
:104930002b2d230030000000fc17000002000000b7
:104940008200000004000000f417000004000000d2
:1049500080000000001a0000220000008200000019
:1049600030313200333435003637380039414200b7
:1049700043444500460030003132330034353600c0
:10498000373839006162630064656600000000002a
:10499000fe17000002000000800000000000000080
:020000040000fa
:1049a0000000fa0010c0b300df05070034f0b700c4
:1049b00034d0bf00421f2000030020004106070042
:1049c0000040eb00d805070035f0b7000080fa0082
:1049d000000006004800fa00881f780034d0bf00ad
:1049e000860607000004e000d601320035d0bf0083
:1049f0004206200003002000320607000a003700ac
:104a00001b04070035d0bf007c0607000004e0004f
:104a100005003200e086290034f1070010c0b30021
:104a200000f0b700c8013700280507000004a20005
:104a30000004e000f2ff3a0010c2b3004104070096
:104a400030c0b3003f04070030c5b3003d04070089
:104a500070c7b3003b040700d087290023f107008b
:104a60000040eb00004f780035d0bf00820c2000e2
:104a7000030020001306070012003700130507008b
:104a80000004a2000004e000050032001e84fb00c8
:104a9000f7030700e600440000f778001e4fe80027
:104aa00035d0bf00550607000004e00005003200c5
:104ab000208929000df1070020c0b30000f0b700e5
:104ac000a101370010c4b3009e40780080cf500091
:104ad000eaff360035d0bf002a0607000040eb0091
:104ae000104798000040eb00004f780007003700a7
:104af0001e80fb00660040006e4078009e409000e3
:104b000000c04000104798001e4fe80000c4b300ea
:104b10009e40780080cf5000f5ff3600fec0900028
:104b20001e40900080cf500005003200308a2900de
:104b3000eef0070030c0b30000f0b700820137008c
:104b40001e5890000080fb00c800dd002e58900029
:104b50000080fb0001007000108088003e5890002b
:104b60000080fb00c800dd004e5890000080fb0074
:104b700001007000208088001e4890000080fb002b
:104b800080004000e06629000080400010007800ae
:104b9000508088003e4890000080fb00c800dd0087
:104ba0002e4890000080fb0001007000cf80de00e6
:104bb000f5ef0700228523004328240048f0070072
:104bc00002002000832c240045f0070002002c0086
:104bd000f347240080ef0700d0ef070000007800c3
:104be000908088005e4890000080fb00c800dd00d7
:104bf0004e4890000080fb00010070006101b90088
:104c0000f0ff270001002000020278000301780075
:104c1000800178000100780003026200000061005a
:104c20006101b800c011dd00020020000200be00da
:104c30006121b80002007000838070001280800043
:104c40008001eb00828ab900809bb900860278005f
:104c5000050242000200b800010242008400780010
:104c6000f2ff20000300200051f007001007980019
:104c7000210798005e4890000080fb00c800dd001e
:104c80004e4890000080fb00010070000000e00032
:104c900006003d001e009000ae0090006000100075
:104ca000e080180010079800210798001e0090006f
:104cb000a08088007e4890000080fb00c800dd00d6
:104cc0006e4890000080fb00010070006101b90097
:104cd000f0ff2700010020000202780003017800a5
:104ce000800178000100780003026200000061008a
:104cf0006101b800c011dd00020020000200be000a
:104d00006121b80002007000838070002280800062
:104d10008001eb00828ab900809bb900860278008e
:104d2000050242000200b80001024200840078003f
:104d3000a2aa2200030020001df00700100798001f
:104d4000210798007e4890000080fb00c800dd002d
:104d50006e4890000080fb00010070000000e00041
:104d600006003d001e009000ae00900060001000a4
:104d7000e080180010079800210798001e0090009e
:104d8000c08088000e5090000080fb008000eb0087
:104d9000c001dd00020020001e5090000080fb00da
:104da0004800dd00cf80de000001710081817100cc
:104db0002e5090000080fb008000eb00000071008e
:104dc0008180710030808800418088006e509000a2
:104dd0000080fb008000eb00c001dd00020020002d
:104de0007e5090000080fb004800dd00cf80de0098
:104df00000017100818171000e5890000080fb005d
:104e00008000eb000000710081807100008188004b
:104e1000118188003e6090000080fb00c800dd002a
:104e20002e6090000080fb00010070006101b9005d
:104e3000208080008000eb00809ab900828bb9004e
:104e400086027800050242000010b800010242000c
:104e500084007800a2aa22000300200020ef0700af
:104e600000007800d08088005e6090000080fb0029
:104e7000c800dd004e6090000080fb000100700063
:104e80006101b900108080008000eb00809ab900b9
:104e9000828bb90086027800050242000010b8003b
:104ea0000102420084007800f2ff2000030020008d
:104eb0000bef070000007800e08088007e60900023
:104ec0000080fb00c800dd006e6090000080fb00e9
:104ed000010070006101b900108080008000eb00cb
:104ee000809ab900828bb9008602780005024200e0
:104ef0000010b8000102420084007800f2ff200098
:104f000003002000f6ee070000007800f080880023
:104f10001e7090000080fb00c800dd000e70900045
:104f20000080fb00010070006101b900f0ff270064
:104f3000010020000202780003017800800178005f
:104f40000100780003026200000061006101b80006
:104f5000c011dd00020020000200be006121b80087
:104f60000200700083807000128080008001eb00de
:104f7000828ab900809bb90086027800050242004f
:104f80000200b8000102420084007800f2ff200015
:104f90000300200086ef0700100798002107980003
:104fa0001e7090000080fb00c800dd000e709000b5
:104fb0000080fb00010070000000e00006003d00e2
:104fc0001e009000ae00900060001000e08018000d
:104fd00010079800210798001e009000b0808800fc
:104fe0002ec090000080fb0080004000e066290099
:104ff00000804000100078006080880010808000f1
:10500000801f7800e08a2900801f780048f107009f
:10501000e487570020808000801f7800c08b290023
:10502000801f780042f10700e4875700508080001d
:10503000801f7800908c2900801f78003cf10700c9
:10504000e487570090808000801f7800908d2900b1
:10505000801f780036f10700e4875700a0808000a9
:10506000801f7800208e2900801f780030f1070013
:10507000e4875700c0808000801f7800508f29008f
:10508000801f78002af10700e487570030808000f5
:1050900041808000809fbe00e08f2900801f780043
:1050a00023f10700e687570000818000118180000e
:1050b000809fbe00b0902900801f78001cf107007f
:1050c000e6875700d0808000801f7800a0912900db
:1050d000801f780016f10700e4875700e080800009
:1050e000801f7800d0922900801f780010f10700ff
:1050f000e4875700f0808000801f7800a09429008a
:10510000801f78000af10700e4875700b080800014
:10511000801f780070962900801f780004f1070036
:10512000e487570060808000801f7800a0972900e6
:10513000801f7800fef00700e48757000070ef0042
:1051400001003700000000004f0478000080fa00e2
:10515000000006000000fa003080800041808000de
:105160000080fa00000006000000fa005080800075
:105170000080fa00000006000000fa006080800055
:105180000080fa00000006000000fa007080800035
:105190000080fa00000006000000fa008080800015
:1051a0000080fa00000006000000fa0090808000f5
:1051b0000080fa00000006000000fa00a0808000d5
:1051c0000080fa00000006000000fa00b0808000b5
:1051d0000080fa00000006000000fa00c080800095
:1051e0000080fa00000006000000fa00d080800075
:1051f0000080fa00000006000000fa00e080800055
:105200000080fa00000006000000fa00f080800034
:105210000080fa00000006000000fa000081800013
:10522000118180000080fa00000006000000fa00f2
:1052300000d0bf000080fa00000006001000fa0055
:1052400010c0b3005047980040c0b30040479800da
:1052500080c0b3006047980038d0bf000080fb00da
:10526000cf80de00c200200003002000820f50002b
:10527000838f5800af013e00000601000c0037008c
:1052800031003700560037007400370092003700b5
:10529000b0003700ce003700ec0037000a013700bd
:1052a00028013700460137006401370082013700ca
:1052b0000019200001002000008fbe0000c1b300d3
:1052c000704798000040eb00004f980000c2b30008
:1052d000104f980010c0b300204f98009dff0700aa
:1052e00000407800304f98009aff07004809dd0021
:1052f0004800de0000007100c808de0000407800b1
:10530000404f980093ff07004008de0000407800ff
:10531000504f98008fff07004808de0000407800db
:10532000604f98008e00780020002000dcf8070015
:105330000000e0008101320038d0bf000040e800ea
:1053400038f0b70096013700001920000100200056
:10535000008fbe0000c1b3007047980010c0b300ba
:10536000004f980000c2b300104f980010c0b30067
:10537000204f9800a8ff070000407800304f9800a9
:10538000a5ff07004809dd004800de0000007100ad
:10539000c808de0000407800404f98009eff0700dc
:1053a0004008de0000407800504f98009aff070048
:1053b0004808de0000407800604f98008e007800ba
:1053c00020002000b6f807000000e0005d01320078
:1053d00038d0bf000040e80038f0b7007001370057
:1053e0000029200001002000008fbe0000c1b30092
:1053f000704798000040eb00004f980000c2b300d7
:10540000104f980010c0b300204f980056ff0700bf
:1054100000407800304f980053ff07004800de003e
:1054200000407800404f98000040eb00504f98003b
:105430000040eb00604f98008e00780020002000b4
:1054400097f807000000e0004001320038d0bf00ac
:105450000040e80038f0b700510137000029200073
:1054600001002000008fbe0000c1b300704798000b
:105470000040eb00004f980000c2b300104f9800ae
